:03000000020006F5
:03005F0002000399
:0300030002006296
:10006200120B3D1217FC123214900000E4F09000C3
:1000720001F0900002F0900003F0900004F0900074
:1000820005F0900006F0900007F0900008F0900054
:1000920009F090000AF090000BF090000CF0900034
:1000A2000DF090000EF090000FF0900010F0900014
:1000B20011F0900012F0900013F07F00BF14005076
:1000C20010EF2400F582E43400F583747CF00F8095
:1000D200EB7F00C007120B6AAD82AE83D007BD0A68
:1000E200028014BD0D02800FEF2400F582E434007B
:1000F200F583EDF00F80DC9000197414F07400A306
:10010200F0E4A3F090000075F0001201BD9000161B
:10011200E0FF7E00900015E0FD7C00C007C006C035
:1001220005C004748DC0E0744AC0E07480C0E0125F
:100132003EBFE58124F9F58174ACC0E0744AC0E0A9
:10014200123BB615811581900014E0F582120180F0
:100152001217B8900014E0FFBF0302800302006B85
:10016200900016E0F582121702900015E0F5821257
:0E0172001767900017E0F58212188A02006BE2
:104A8D000A0D1B5B33383B353B3231346D42504D93
:104A9D003D2025642053504F323D25640A0D001BE7
:044AAD005B306D000D
:10018000E582900018F0E0FF24FC402AEF2F900158
:1001900092738006800B80108015904AB175F080B4
:1001A00022904ABC75F08022904AC675F080229059
:1001B0004AD675F08022904AE675F08022AFF0AE04
:1001C00083E58290001CF0EEA3F0EFA3F090001FF7
:1001D000E4F0900020F0900021F0900022F09000D8
:1001E0001CE0FDA3E0FEA3E0FF7C00EC2DF9E43E63
:1001F000FA8F0389828A838BF01249AEFBBB2302FC
:100200008012EB24D0FB90001FE075F00AA4FA2BBB
:10021000F00C80D70C90001FE0FF7E00C004C007E8
:10022000C006740BC0E0744BC0E07480C0E074EE94
:10023000C0E0744AC0E07480C0E0123EBFE5812493
:10024000F8F5817417C0E0744BC0E0123BB615811D
:100250001581D00490001CE0FDA3E0FEA3E0FFECBC
:100260002DF9E43EFA8F0389828A838BF01249AE1E
:10027000FBBB23028012EB24D0FB900020E075F042
:100280000AA4FA2BF00C80D70C900020E0FF7E002F
:10029000C004C007C006740BC0E0744BC0E074809B
:1002A000C0E0741CC0E0744BC0E07480C0E0123E3B
:1002B000BFE58124F8F5817417C0E0744BC0E012EB
:1002C0003BB615811581D00490001CE0FDA3E0FE33
:1002D000A3E0FFEC2DF9E43EFA8F0389828A838B39
:1002E000F01249AEFBBB23028012EB24D0FB90003E
:1002F00021E075F00AA4FA2BF00C80D70C900021B5
:10030000E0FF7E00C004C007C006740BC0E0744B61
:10031000C0E07480C0E07436C0E0744BC0E074800C
:10032000C0E0123EBFE58124F8F5817417C0E07487
:100330004BC0E0123BB615811581D00490001CE043
:10034000FDA3E0FEA3E0FFEC2DF9E43EFA8F038964
:10035000828A838BF01249AEFBBB23028012EB240E
:10036000D0FB900022E075F00AA4FA2BF00C80D7A5
:10037000900022E0FFFD7E00C007C005C006740BA0
:10038000C0E0744BC0E07480C0E07451C0E0744BB6
:10039000C0E07480C0E0123EBFE58124F8F58174AE
:1003A00017C0E0744BC0E0123BB615811581D00731
:1003B000900019E0FCA3E0FDA3E0FE90001FE08C9C
:1003C000828D838EF0123B9B74012CF9E43DFA8EF2
:1003D00003900020E089828A838BF0123B9B740299
:1003E0002CF9E43DFA8E03900021E089828A838B08
:1003F000F0123B9B74032CFCE43DFD8C828D838EBC
:05040000F0EF023B9B40
:104AB1004E4F2052454144494E47004E4F542052DB
:104AC10045414459004F424A4543542044455445C9
:104AD100435445440046494E4745522044455445B8
:104AE1004354454400554E4B4E4F574E000A0D1B43
:104AF1005B33383B353B3231346D25733A20537487
:104B010061747573203D202564007265616442699A
:104B11006F64617461001B5B306D000A0D1B5B33B8
:104B2100383B353B3231346D25733A2042504D20AC
:104B31003D202564000A0D1B5B33383B353B323188
:104B4100346D25733A2053504F32203D20256400A7
:104B51000A0D1B5B33383B353B3231346D25733ADB
:0C4B61002049524C4544203D20256400B2
:1004050000D2930000C2930022D2920000D293A2A0
:1004150092E433FF00C29300EF600490FFFF229047
:10042500000022D29200D29300C2920000C2932211
:10043500C2920000D2930000D292000022C2920024
:1004450000120405D292000022D292000012040587
:10045500000022E582900023F0900024E4F07E0065
:100465007F00C3EE9408EF648094805024900024AC
:10047500E025E0F0900023E0FD74015DFC90002490
:10048500E04CF0EDC313900023F00EBE00D40F80B6
:10049500D1900024E0F58222E582900028F09000BA
:1004A50026E0A3E0FF5307078F0674015EFFEEC346
:1004B50013FE74015EFDEEC313FE5306017B007C43
:1004C50000C3EB9404EC648094805034900025E0E4
:1004D500FA540124FF9292C007C006C005C004C0AB
:1004E50003C002120405D002D003D004D005D00603
:1004F500D007EAC313900025F00BBB00C40C80C1E4
:10050500EE24FF9292C007C005120405D005ED2424
:10051500FF9292120405D007EF24FF929212040570
:10052500900028E024FF9292020405E58290002ABB
:10053500F07E007F00C3EE9407EF6480948050281E
:10054500900029E0FD540124FF9292C007C006C027
:1005550005120405D005D006D007EDC31390002978
:10056500F00EBE00D00F80CD90002AE024FF9292BD
:10057500020405E58290002BF0E0F582120458E5AF
:100585008290002CF07E007F00C3EE9408EF64801B
:100595009480502190002CE0FD540124FF9292EDAF
:1005A500C313F0C007C006120405D006D0070EBE5F
:1005B50000D70F80D42290002DE4F07E007F00C389
:1005C500EE9408EF64809480501ED29390002DE045
:1005D50025E0FDA292E433FC90002D4DF000C2937E
:1005E500000EBE00DA0F80D790002DE0F58222E5DF
:1005F5008290002FF012042890002FE0FF90002930
:10060500F0758200C00712053012040EAD82AE836C
:10061500D007BDFF33BEFF307498C0E0744BC0E017
:100625007480C0E0746DC0E0744BC0E0123BB6E569
:100635008124FBF58174ACC0E0744BC0E0123BB67D
:100645001581158190FFFF2290002EE0F582C007ED
:10065500120458E582D007900030F07D007E00C37B
:10066500ED9408EE648094805025900030E0FC54B1
:100675000124FF9292ECC313F0C007C006C0051217
:100685000405D005D006D0070DBD00D30E80D0C01F
:100695000712040EAD82AE83D007BDFF33BEFF3017
:1006A5007498C0E0744BC0E07480C0E074B1C0E0E1
:1006B500744BC0E0123BB6E58124FBF58174ACC0F8
:1006C500E0744BC0E0123BB61581158190FFFF2207
:1006D500C007120428D007900029EFF07582011297
:1006E500053012040EAE82AF83BEFF33BFFF3074F8
:1006F50098C0E0744BC0E07480C0E0746DC0E074D5
:100705004BC0E0123BB6E58124FBF58174ACC0E03B
:10071500744BC0E0123BB61581158190FFFF229006
:100725000031E4F07E007F00C3EE9408EF6480940E
:1007350080501ED293900031E025E0FDA292E43373
:10074500FC9000314DF000C293000EBE00DA0F8020
:10075500D712044E120435900031E0FF7E008F82DF
:100765008E8322E582900037F0120428900037E04E
:10077500FF900029F0758200C00712053012040EA3
:10078500AD82AE83D007BDFF33BEFF3074D9C0E064
:10079500744BC0E07480C0E0746DC0E0744BC0E081
:1007A500123BB6E58124FBF58174ACC0E0744BC007
:1007B500E0123BB61581158190FFFF22900032E0D3
:1007C500F582C007120458E582D007900038F07D05
:1007D500007E00C3ED9408EE64809480502590005F
:1007E50038E0FC540124FF9292ECC313F0C007C01B
:1007F50006C005120405D005D006D0070DBD00D3EF
:100805000E80D0C00712040EAD82AE83D007BDFFA7
:1008150033BEFF3074D9C0E0744BC0E07480C0E0D3
:1008250074B1C0E0744BC0E0123BB6E58124FBF522
:100835008174ACC0E0744BC0E0123BB615811581E4
:1008450090FFFF22C007120428D007900029EFF07F
:1008550075820112053012040EAE82AF83BEFF33DE
:10086500BFFF3074D9C0E0744BC0E07480C0E07441
:100875006DC0E0744BC0E0123BB6E58124FBF58109
:1008850074ACC0E0744BC0E0123BB6158115819085
:10089500FFFF22900033E0FDA3E0FEA3E0FF900000
:1008A50036E0FC7B00C3EB9C4003020961900039F4
:1008B500E4F079007A00C3E99408EA6480948050F2
:1008C5002AC005C006C007D293900039E025E0F89C
:1008D500A292E433FF90003948F000C2930009B9B1
:1008E50000010AD007D006D00580CBEB2DF8E43EF9
:1008F500F98F02C005C006C007900039E0888289DB
:10090500838AF0123B9B8C067F001EBEFF011F8B66
:10091500027D00C3EA9EED64808FF063F08095F060
:10092500D007D006D0055019C007C006C005C004C1
:10093500C003120442D003D004D005D006D00780EE
:1009450017C007C006C005C004C00312044ED0037B
:10095500D004D005D006D0070B0208AA12043590A2
:10096500000022E58290003CF012042890003CE053
:10097500900029F075820012053012040EAE82AF88
:1009850083BEFF2FBFFF2C74EAC0E0744BC0E07438
:1009950080C0E0746DC0E0744BC0E0123BB6E581E9
:1009A50024FBF58174ACC0E0744BC0E0123BB61576
:1009B50081158190003AE0F582120458E582900095
:1009C5003DF07E007F00C3EE9408EF648094805074
:1009D5002190003DE0FD540124FF9292EDC313F0F8
:1009E500C007C006120405D006D0070EBE00D70FFB
:1009F50080D412040EAE82AF83BEFF33BFFF3074C6
:100A0500EAC0E0744BC0E07480C0E074B1C0E0742B
:100A15004BC0E0123BB6E58124FBF58174ACC0E028
:100A2500744BC0E0123BB61581158190FFFF2290F3
:100A3500003BE0F582120458E58290003EF07E000E
:100A45007F00C3EE9408EF64809480502190003EAF
:100A5500E0FD540124FF9292EDC313F0C007C006D8
:100A6500120405D006D0070EBE00D70F80D412049D
:100A75000EAE82AF83BEFF33BFFF3074EAC0E074B1
:100A85004BC0E07480C0E074FFC0E0744BC0E0125E
:100A95003BB6E58124FBF58174ACC0E0744BC0E046
:100AA500123BB61581158190FFFF22020435900097
:100AB5002E740AF07582751205F4AE827F00C006A9
:100AC500C0077425C0E0744CC0E07480C0E0123EDD
:100AD500BFE58124FBF58174ACC0E0744BC0E01226
:100AE5003BB61581158190003A740AF090003B746D
:100AF50001F075827512096890002E740AF07582EE
:100B0500751205F4AE827F00C006C007744FC0E0C1
:100B1500744CC0E07480C0E0123EBFE58124FBF553
:100B25008174ACC0E0744BC0E0123BB615811581F1
:010B3500229D
:104B6D000A0D1B5B313B33316D4552524F523A208A
:104B7D0025733A2041636B6E6F776C656467656D65
:104B8D00656E74204661696C65640072656164527E
:104B9D00656769737465724D415857696E67001B7F
:104BAD005B306D000A0D1B5B313B33316D4552524D
:104BBD004F523A20257320526561642061646472FE
:104BCD00657373206661696C65642100726561644B
:104BDD0042797465734D415857696E6700777269F4
:104BED00746552656769737465724D415857696E86
:104BFD0067000A0D1B5B313B33316D4552524F52ED
:104C0D003A202573205772697465206461746120A0
:104C1D006661696C656421000A0D1B5B33383B3599
:104C2D003B3231346D4C4F4720313A2056616C7513
:104C3D0065206174206C6F636174696F6E3A202515
:104C4D0075000A0D1B5B33383B353B3231346D4CEF
:104C5D004F4720323A56616C7565206174206C6F38
:0B4C6D00636174696F6E3A20257500CA
:100B3600438E0C90000022758920758DFD759850A6
:100B4600D28ED29922AF83E58290003FF0EFA3F0D8
:100B560010990280FB90003FE0FEA3E0FF8E998E85
:100B6600828F832210980280FBAE997F008E828F3F
:100B76008322E582900043F0900041E0FEA3E0FF6F
:100B8600900043E0FD900044E4F0A3F0900046F0AE
:100B96008D037C00C007C006C005C003C00474787E
:100BA600C0E0744CC0E0123BB6E58124FCF581D070
:100BB60005D006D0077C00C3EC9D4003020CE0C0C4
:100BC60007C006C005C004120B6AAA82AB83D00414
:100BD600D005D006D007BA0D03020CE08A017B00CF
:100BE600C007C006C005C004C002C001C003749B94
:100BF600C0E0744CC0E0123BB6E58124FCF581D020
:100C060002D004D005D006D007BA30005003020C3B
:100C1600AAEA24C65003020CAAEA24D0FA90004499
:100C2600E0F9A3E0FB9001DFE9F0EBA3F090000A06
:100C3600C007C006C005C004C002123CBFA982ABF3
:100C460083D002D004D005D006D0078A007A00E807
:100C560029F9EA3BFB900044E9F0EBA3F09000444D
:100C6600E0FAA3E0FBC3EE9AEF9B506AC007C0060A
:100C7600C005C006C007749EC0E0744CC0E0123BBD
:100C8600B6E58124FCF58174CFC0E0744CC0E01257
:100C96003BB615811581D005D006D0079000467465
:100CA60001F08036C007C006C00574D4C0E0744C9D
:100CB600C0E0123BB61581158174CFC0E0744CC0FC
:100CC600E0123BB615811581D005D006D0079000FD
:100CD600467401F080040C020BBD900046E06003F0
:100CE600020B8B900044E0FEA3E0FFC007C006C0E5
:100CF60006C00774F6C0E0744CC0E0123BB6E5814E
:100D060024FCF58174CFC0E0744CC0E0123BB615EC
:100D1600811581D006D0078E828F8322E5829000CE
:100D260049F0900047E0FEA3E0FF900049E0FD9007
:100D3600004AE4F0A3F090004CF08D037C00C0075D
:100D4600C006C005C003C0047417C0E0744DC0E0FF
:100D5600123BB6E58124FCF581D005D006D0077C90
:100D660000C3EC9D4003020ED5C007C006C005C0F7
:100D760004120B6AAA82AB83D004D005D006D00732
:100D8600BA0D03020ED58A017B00C007C006C00556
:100D9600C004C002C001C003749BC0E0744CC0E034
:100DA600123BB6E58124FCF581D002D004D005D0F3
:100DB60006D007BA30004011EA24C6400C8A03EB7D
:100DC60024D090004DF0020E62BA41028003BA614F
:100DD6000990004D740AF0020E62BA42028003BA0C
:100DE600620890004D740BF08072BA43028003BA19
:100DF600630890004D740CF08062BA44028003BA16
:100E0600640890004D740DF08052BA45028003BA12
:100E1600650890004D740EF08042BA46028003BA0F
:100E2600660890004D740FF08032C007C006C005FA
:100E3600743DC0E0744DC0E0123BB6158115817457
:100E4600CFC0E0744CC0E0123BB615811581D005C9
:100E5600D006D00790004C7401F0807390004AE0F1
:100E6600FAA3E0C454F0CAC4CA6ACA54F0CA6AFBF8
:100E760090004DE0F879002AFAE93BFB90004AEA37
:100E8600F0EBA3F090004AE0FAA3E0FBC3EE9AEF82
:100E96009B5038C007C006C005C006C007749EC078
:100EA600E0744CC0E0123BB6E58124FCF58174CFBA
:100EB600C0E0744CC0E0123BB615811581D005D058
:100EC60006D00790004C7401F080040C020D679068
:100ED600004CE06003020D3590004AE0FEA3E0FFFF
:100EE600C007C006C006C007747AC0E0744DC0E0F3
:100EF600123BB6E58124FCF58174CFC0E0744CC08A
:100F0600E0123BB615811581D006D0078E828F83FD
:010F160022B8
:104C78000A0D456E7465722061206D6178696D75E5
:104C88006D202564206469676974206E756D62659E
:104C9800723A002563000A0D1B5B313B33316D45C9
:104CA80052524F523A2056616C756520656E746594
:104CB800726564206973206265796F6E6420726121
:104CC8006E6765202578001B5B306D000A0D1B5B45
:104CD800313B33316D4552524F523A20456E74651F
:104CE80072206F6E6C7920646967697421000A0DFF
:104CF8001B5B313B33336D5573657220656E74658C
:104D080072656420696E707574203D202564000A00
:104D18000D456E7465722061206D6178696D756DE1
:104D28002025642063686172616374657220696E0E
:104D38007075743A000A0D1B5B313B33316D455277
:104D4800524F523A20456E746572206F6E6C79200E
:104D580076616C756573206265747765656E203061
:104D680020746F203920616E64204120746F2046C2
:104D780021000A0D1B5B313B33336D55736572207F
:104D8800656E746572656420696E707574203D2067
:034D98002578007B
:100F1700AF83E58290004EF0EFA3F090004EE0FE25
:100F2700A3E0FF7C007D00C3EC9EED9F5008000C02
:100F3700BC00F40D80F12290800EE020E7F922E555
:100F470082900051F0E0FF700C900052740CF07426
:100F570080A3F08062BF010B9000527408F0C4A315
:100F6700F08054BF020C9000527404F07480A3F018
:100F77008045BF050C9000527409F07480A3F0807F
:100F870036BF060C9000527405F07480A3F08027DA
:100F97007E00C007C006747BC0E0744FC0E0123B00
:100FA700B6E58124FCF58174A5C0E0744FC0E0125A
:100FB7003BB61581158122900052E0FEA3E0FF9019
:100FC7000050E08E828F83F022E582900054F0E09B
:100FD700FFBF400050047582032275820422E58218
:100FE700900056F0E0FFF582C007120FD0AE82D016
:100FF70007BE0327900055E090005044B8F0758273
:1010070001C007120F46120F3ED0079000507440E0
:101017004FF0758201120F46020F3EBE042DEF24DA
:10102700C0900056F0900055E090005044B8F0751D
:101037008202120F46120F3E900056E09000504475
:1010470040F0758202120F46020F3E22E5829000A1
:1010570059F0E0FF900057E0900055F08F82C007ED
:10106700120FE5D0078F82120FD0AF82BF03109007
:101077000058E0900050F0758205120F46800E90E0
:101087000058E0900050F0758206120F46020F3E9E
:10109700E58290005AF0E0F582120FD0AF829000FF
:1010A7005BE4F0A3F0BF030C90005B740BF074805B
:1010B700A3F0802DBF040C90005B7407F07480A32D
:1010C700F0801E74AAC0E0744FC0E0123BB61581D1
:1010D700158174A5C0E0744FC0E0123BB6158115A9
:1010E7008190005BE0FEA3E0FF8E828F83E0F582B4
:1010F70022E58290005FF0E0FF743FC39FF0E0FFBE
:101107007E009001EA7408F0E4A3F08F828E83C01A
:1011170007C006123DF3AC82D006D00753070790ED
:10112700005DE0FE900055ECF08E82C007C006C05F
:1011370004120FE5D004D0068E82C006C004121038
:1011470097D004D0068E82C006C004121097AD82D5
:10115700D004D006D007900060EDF090005EE0FB71
:10116700BB01178F028AF005F07401800225E0D5D4
:10117700F0FBFA9000604DF08017EB70148FF005CC
:10118700F07401800225E0D5F0FBF4FF9000605D6C
:10119700F0900060E0FF900057ECF0900058EFF0FF
:1011A7008E820210537F00BF8000502A8F067D0079
:1011B700BD0800501E900057EDF0900058E4F08EE7
:1011C70082C007C006C005121053D005D006D0074D
:1011D7000D80DD0F80D122E582900063F0900062E0
:1011E700E024E075F003A4FF900061E0FE90006347
:1011F700E0FD7C00BC030050438F027B008C00792C
:1012070000E82AFAE93BFBEA249BF582EB344DF52B
:1012170083E493FB900057EEF0900058EBF08D823B
:10122700C007C006C005C004121053D004D005D0B3
:1012370006D0070D900063EDF00C80B8900063EDC9
:10124700F022E582900066F0900064E0FF90006570
:10125700E0FE7D00C3ED9E502F900066E0FC9000FD
:1012670061EFF09000627420F08C82C007C006C066
:1012770005C0041211DED004D005D006D0079000B7
:101287006674042CF00D80CC22E58290006BF09000
:101297000067E0FF900068E0FCA3E0FDA3E0FE7BB1
:1012A70000EB2CF8E43DF98E02888289838AF012DC
:1012B70049AEFA603690006BE0F9900061EFF0906C
:1012C7000062EAF08982C007C006C005C004C003F7
:1012D700C0011211DED001D003D004D005D006D052
:1012E700070B90006B740429F080B622AF83E58268
:1012F70090006EF0EFA3F090006EE0FEA3E0FF9089
:10130700006CE0FCA3E0FDC3EC9EED64808FF0630E
:10131700F08095F0500D8E038C02900070EBC39A0D
:10132700F08007900070ECC39EF0900070E0F582AB
:1013370022AF83E582900077F0EFA3F0900071E091
:10134700FEA3E0FF900075E0FCA3E0FD90006CECCD
:10135700F0EDA3F08E828F83C007C006C005C004DE
:101367001212F3AB828B0A750B00900077E0F8A39B
:10137700E0F9900073E0F508A3E0F50990006CE54B
:1013870008F0E509A3F088828983C001C000121222
:10139700F3AB82D000D001D004D005D006D0077AB5
:1013A70000E50AC39BFBE50B9AFAC3E49B74808AAA
:1013B700F063F08095F0E433FB6042900079E8F049
:1013C700E9A3F0900077EEF0EFA3F0900079E0FE4C
:1013D700A3E0FF900071EEF0EFA3F0900079E5082D
:1013E700F0E509A3F0900073ECF0EDA3F09000791D
:1013F700E0FEA3E0FF900075EEF0EFA3F09000771A
:10140700E0FEA3E0FF900073E0FCA3E0FDC3EC9EC9
:10141700ED64808FF063F08095F0505090007BEE84
:10142700F0EFA3F0900077ECF0EDA3F090007BE0F5
:10143700FEA3E0FF900073EEF0EFA3F0900071E0E1
:10144700FEA3E0FF90007BEEF0EFA3F0900075E0C5
:10145700FEA3E0FF900071EEF0EFA3F090007BE0B9
:10146700FEA3E0FF900075EEF0EFA3F0900077E0A9
:10147700FEA3E0FF900073E0FCA3E0FDECC39EFE3B
:10148700ED9FFF900075E0FCA3E0FD900071E0F98F
:10149700A3E0FA90006CE9F0EAA3F08C828D83C098
:1014A70007C006C005C004C003C002C0011212F382
:1014B700A882D001D002D003D004D005D006D0072F
:1014C700880A750B009001EA7402F0E4A3F08E829B
:1014D7008F83C007C006C005C004C003C002C00197
:1014E700123DF3E5828583F0D001D002D003D0040A
:1014F700D005D006D00790007DF0E5F0A3F0C3E952
:101507009CEA64808DF063F08095F0500B90007F2B
:101517007401F0E4A3F0800890007F74FFF0A3F05B
:10152700900071E0FCA3E0FD900081ECF0EDA3F0EA
:10153700900077E0FCA3E0FD90007FE0F9A3E0FADC
:10154700900073E0F508A3E0F509C3E5089CE509F9
:1015570064808DF063F08095F0500122EB6040C00D
:1015670001C0028C00900081E0F9A3E0FA90005DD1
:10157700E9F090005E7401F08882C007C006C005DC
:10158700C004C003C002C0011210F8D001D002D0BD
:1015970003D004D005D006D007D002D001803CC0CC
:1015A70001C002900081E0F8A3E0FA90005DECF042
:1015B70090005E7401F08882C007C006C005C004B1
:1015C700C003C002C0011210F8D001D002D003D06E
:1015D70004D005D006D007D002D001C001C00290C8
:1015E700007DE0F8A3E0FA90007DE8C3950AF0EAF1
:1015F700950BA3F090007DE0F50CA3E0F50DD0026C
:10160700D00130E722C003900081E0F8A3E0FB900F
:101617000081E928F0EA3BA3F090007DEE250CF06D
:10162700EF350DA3F0D0030CBC00010D021551E5F9
:1016370082900086F0E0701A900083E0FDA3E0FE40
:10164700A3E0FF8D828E838FF07430123B9B7582EF
:1016570001227F00900086E0FEE06052EF2487FCC5
:10166700E43400FD7B009001E1740AF0E4A3F08EFE
:10167700828B83C007C006C005C004C003123CDFCD
:10168700A982D003D004D005D0068C828D83E9F0DF
:101697009001EA740AF0E4A3F08E828B83123DF383
:1016A700AD82AE83D007900086EDF00F80A68F063F
:1016B7007D001FBFFF011D900083E0F50EA3E0F53D
:1016C7000FA3E0F5107900ED20E72DC006E9250E00
:1016D700F8E4350FFCAE10EF2487F582ED3400F502
:1016E70083E02430FB88828C838EF0123B9B091F9A
:1016F700BFFF011DD00680CF8E8222E58290008A2F
:10170700F0E0FF900083748BF07400A3F0E4A3F083
:101717008F82121636E582FF248BF582E43400F5BA
:10172700837425F00FEF3395E0FEEF248BF582EEFF
:101737003400F583E4F090006404F09000657405CC
:10174700F07582461212499000677401F0900068A4
:10175700748BF07400A3F0E4A3F075824602129034
:10176700E582900090F0E0FF9000837491F07400A0
:10177700A3F0E4A3F08F82121636E5822491F58256
:10178700E43400F583E4F090006404F0900065749D
:1017970005F07582641212499000677401F0900099
:1017A700687491F07400A3F0E4A3F07582640212E8
:1017B70090AFF0AE83E582900095F0EEA3F0EFA333
:1017C700F09000647401F0900065740FF075820268
:1017D700121249900095E0FDA3E0FEA3E0FF900000
:1017E700677401F0900068EDF0EEA3F0EFA3F075D9
:1017F7008202021290C2919003E8120F17D29190C1
:10180700005074B8F0758200120F46900064120FF2
:10181700179000507440F0758200120F46900064D4
:10182700120F17900050743FF0758200120F469008
:101837000064120F171211AC900067E4F090006873
:1018470074CDF0744FA3F07480A3F0758202121266
:1018570090900067E4F090006874D4F0744FA3F0A0
:101867007480A3F0758246121290900067E4F0909E
:10187700006874D9F0744FA3F07480A3F075826484
:10188700021290E58290009AF0E0C423541FFF9063
:101897000098E0FE90009B74022EF07E02BE0800C6
:1018A700503A900098E0FD0D900057EEF0900058E8
:1018B700E4F08D82C007C006121053D0069000983E
:1018C700E0FD0D0D900057EEF0900058E4F08D828A
:1018D700C006121053D006D0070E80C1900098E0C2
:1018E700FE7D00900099E0FC7B0090009BE0FA8A67
:1018F700118D128F007900900071ECF0EBA3F0903E
:101907000073E511F0E512A3F0900075E8F0E9A384
:10191700F08E828D83C007C002121338D002D00721
:10192700900098E0FEBE7E0A900098E4F09000993F
:10193700F022900098EAF0900099EFF022AF83E54B
:101947008290009EF0EFA3F0123AFBAE82AF839035
:10195700009EE0FCA3E0FD90009CE0FAA3E0FBEA18
:10196700C39CFAEB9DFB9001E174012AF0E43BA3D1
:10197700F08E828F83C005C004123CDFAE82AF8336
:10198700D004D005EE2CFCEF3D8C82F5832274DD6C
:10199700C0E0744FC0E07480C0E0123EBF158115EF
:1019A70081158174A5C0E0744FC0E0123BB6158164
:1019B7001581900067E4F090006874D4F0744FA329
:1019C700F07480A3F0758220121290900067E4F003
:1019D70090006874D9F0744FA3F07480A3F07582F7
:1019E7005E12129090009C74A0F0E4A3F09000287F
:0E19F70012194412188A9001F4120F1780E69C
:104D9B00000000005F00000700147F14242A7F2806
:104DAB002090364955000503001C22004122082A99
:104DBB001C20702000503020202000606020100844
:104DCB00F888F890F880E8A8B8A8A8F87840E0B878
:104DDB00A8E8F8A8E81808F8F8A8F8B8A8F8005058
:104DEB000000563600081450505041221402015155
:104DFB00324979F828F8F8A870F88888F88870F89C
:104E0B00A8A8F82828F888C8F820F888F88888F81F
:104E1B0088F82088F88080F810F8F810F8F888F8EF
:104E2B00F828383E4151F868B8B8A8E808F808F8EF
:104E3B0080F87880787F2018631408030478615118
:104E4B004900007F02040841417F040201404040B9
:104E5B00000102788078F8A0E0F8A0E0F090F8F874
:104E6B00A8B820F8280814547F080400447D20407B
:104E7B0044007F1000417F7C04187C0804384444B4
:104E8B007C14140814147C0804485454043F443C08
:104E9B0040401C20403C40304428100C505044648F
:104EAB005444645400F800000000000000000000AF
:104EBB0000000000000000000000000000000000E7
:104ECB0000000000000000000000000000000000D7
:104EDB0000000000000000000000000000000000C7
:104EEB0000000000000000000000000000000000B7
:104EFB0000000000000000000000000000000000A7
:104F0B000000000000000000000000000000000096
:104F1B000000000000000000000000000000000086
:104F2B000000000000000000000000000000000076
:104F3B000000000000000000000000000000000066
:104F4B000000000000000000000000000000000056
:104F5B000000000000000000000000000000000046
:104F6B000000000000000000000000000000000036
:104F7B000A0D1B5B313B33316D4552524F523A2078
:104F8B00556E6B6E6F776E204D656D6F727920412C
:104F9B0064647221203D202564001B5B306D000A88
:104FAB000D1B5B313B33316D4552524F523A2055FD
:104FBB004E4B4E4F574E20434F4E54524F4C4C4539
:104FCB0052005354415455530053504F32004250EA
:104FDB004D000A0D1B5B33383B353B3231346D4C86
:0B4FEB0043442054657374696E670036
:101A0500E5829000A0F0E0FF7E00C3EE9F501C7CB5
:101A1500007D008C028D03C3EA94E8EB9403500823
:101A2500000CBC00EE0D80EB0E80DF22E5829000FD
:101A3500A6F01204289000297455F075820012054D
:101A45003012040EAE82AF83BEFF3ABFFF37744734
:101A5500C0E0E4C0E07422C0E07450C0E07480C00F
:101A6500E074F6C0E0744FC0E0123BB6E58124F99E
:101A7500F5817438C0E07450C0E0123BB61581158D
:101A85008190FFFF229000A6E0F5821205781204EE
:101A95000EAE82AF83BEFF33BFFF307422C0E07449
:101AA50050C0E07480C0E0743DC0E07450C0E012E6
:101AB5003BB6E58124FBF5817438C0E07450C0E085
:101AC500123BB61581158190FFFF229000A1E0F52C
:101AD5008212057812040EAE82AF83BEFF33BFFFBC
:101AE500307422C0E07450C0E07480C0E07472C0ED
:101AF500E07450C0E0123BB6E58124FBF5817438F3
:101B0500C0E07450C0E0123BB61581158190FFFF0F
:101B1500229000A2E0FDA3E0FEA3E0FF9000A5E077
:101B2500FC7B00C3EB9C5072EB2DF8E43EF98F0271
:101B3500888289838AF01249AEF582C007C006C043
:101B450005C004C00312057812040EA982AA83D029
:101B550003D004D005D006D007B9FF3BBAFF388BB8
:101B6500017A00C001C0027422C0E07450C0E07464
:101B750080C0E074A6C0E07450C0E0123BB6E581B9
:101B850024F9F5817438C0E07450C0E0123BB615F5
:101B950081158190FFFF220B80891204357582140F
:101BA500121A051204289000297455F07582011245
:101BB500053012040EAE82AF83BEFF33BFFF307413
:101BC50022C0E07450C0E07480C0E074D4C0E074FA
:101BD50050C0E0123BB6E58124FBF5817438C0E0C6
:101BE5007450C0E0123BB61581158190FFFF22129B
:101BF50005BBAF82C00712044E120435D0077E0024
:101C05008F828E8322E5829000A9F0E0FF9000A7E5
:101C1500E0FE9000A1EEF09000A274A8F07400A37D
:101C2500F0E4A3F09000A504F08F82C007C006126F
:101C35001A31AC82AD83C005C00474F9C0E074509C
:101C4500C0E07480C0E0123EBF1581158115817416
:101C550038C0E07450C0E0123BB615811581D00440
:101C6500D005D006D007BCFE05BD000280A48C823D
:101C75008D8322E5829000AEF0120428900029742D
:101C850055F075820012053012040EAE82AF83BE88
:101C9500FF33BFFF30743EC0E07451C0E07480C0B4
:101CA500E07415C0E07451C0E0123BB6E58124FB39
:101CB500F5817438C0E07450C0E0123BB61581154B
:101CC5008190FFFF229000AEE0F5821205781204A4
:101CD5000EAE82AF83BEFF33BFFF30743EC0E074EB
:101CE50051C0E07480C0E0743DC0E07450C0E012A3
:101CF5003BB6E58124FBF5817438C0E07450C0E043
:101D0500123BB61581158190FFFF229000AAE0F5E0
:101D15008212057812040EAE82AF83BEFF33BFFF79
:101D250030743EC0E07451C0E07480C0E07472C08D
:101D3500E07450C0E0123BB6E58124FBF5817438B0
:101D4500C0E07450C0E0123BB61581158190FFFFCD
:101D5500229000ABE0FDA3E0FEA3E0FF9000ABE026
:101D6500F5F0A3E045F0604B8D828E838FF012492C
:101D7500AEF58212057812040EAE82AF83BEFF3334
:101D8500BFFF30743EC0E07451C0E07480C0E074A1
:101D950052C0E07451C0E0123BB6E58124FBF581E9
:101DA5007438C0E07450C0E0123BB61581158190BF
:101DB500FFFF22120435758214121A0512042890A9
:101DC50000297455F075820112053012040EAE8299
:101DD500AF83BEFF33BFFF30743EC0E07451C0E037
:101DE5007480C0E074D4C0E07450C0E0123BB6E526
:101DF5008124FBF5817438C0E07450C0E0123BB615
:101E05001581158190FFFF221205BBAF82C0071215
:101E15000442D007EF60077E008F828E8322120571
:101E2500BBAF82C00712044E120435D0077E008F67
:101E3500828E8322E5829000B4F09000B0E0FDA38D
:101E4500E0FEA3E0FF9000B3E0FC7B00C3EB9C50F9
:101E550015EB2DF8E43EF98F02888289838AF0E438
:101E6500123B9B0B80E6C007C006C005C0041204E8
:101E7500289000297455F075820012053012040E61
:101E8500AA82AB83D004D005D006D007BAFF33BBF6
:101E9500FF307486C0E07451C0E07480C0E07415F2
:101EA500C0E07451C0E0123BB6E58124FBF58174B6
:101EB50038C0E07450C0E0123BB61581158190FF23
:101EC500FF229000B4E0F582C007C006C005C0043B
:101ED50012057812040EAA82AB83D004D005D00671
:101EE500D007BAFF33BBFF307486C0E07451C0E041
:101EF5007480C0E0743DC0E07450C0E0123BB6E5AC
:101F05008124FBF5817438C0E07450C0E0123BB603
:101F15001581158190FFFF229000AFE0F582C00783
:101F2500C006C005C00412057812040EAA82AB8350
:101F3500D004D005D006D007BAFF33BBFF30748676
:101F4500C0E07451C0E07480C0E07472C0E07450A9
:101F5500C0E0123BB6E58124FBF5817438C0E0741E
:101F650050C0E0123BB61581158190FFFF22C007D6
:101F7500C006C005C004120435758214121A051274
:101F850004289000297455F0758201120530120459
:101F95000EAA82AB83D004D005D006D007BAFF3392
:101FA500BBFF307486C0E07451C0E07480C0E0743B
:101FB500D4C0E07450C0E0123BB6E58124FBF58146
:101FC5007438C0E07450C0E0123BB615811581909D
:101FD500FFFF22C007C006C005C0041205BBAB82C7
:101FE500C003120442D003D004D005D006D007EBBD
:101FF500603F7A00C003C002C003C0027486C0E01F
:102005007451C0E07480C0E074A4C0E07451C0E0B5
:10201500123BB6E58124F9F5817438C0E07450C0EF
:10202500E0123BB615811581D002D0038B828A83DD
:10203500227B00C3EB9C504BC004EB2DF8E43EF92A
:102045008F02C007C006C005C003C002C001C000A2
:102055001205BBAC82D000D001D002D003888289A2
:10206500838AF0EC123B9BC004C0031204427582C4
:1020750014121A05D003D004D005D006D0070BD012
:102085000480B012043590000022E5829000B6F07D
:10209500E09000B7F09000B5E09000B8F09000A196
:1020A5007403F09000A274B7F07400A3F0E4A3F0F9
:1020B5009000A57402F0758240021A31E582900005
:1020C500B9F09000AA7403F09000AB74B9F07400F5
:1020D500A3F0E4A3F0758241021C789000AAE4F015
:1020E5009000ABF0A3F0A3F0758202121C78AE82CB
:1020F500AF83BEFF29BFFF26C007C00674C8C0E076
:102105007451C0E0123BB6158115817438C0E07476
:1021150050C0E0123BB615811581D006D0078E82DE
:102125002274F3C0E07451C0E07480C0E0123EBF79
:102135001581158115817438C0E07450C0E0123BDB
:10214500B615811581C2B4D294758214121A05D2BE
:10215500B4758264121A057F00BF0500500D7582A3
:1021650064C007121A05D0070F80EE1220E0E58241
:10217500601F741FC0E07452C0E0123BB615811594
:10218500817438C0E07450C0E0123BB615811581EA
:1021950022744BC0E07452C0E07480C0E0123EBFB0
:1021A5001581158115817438C0E07450C0E0123B6B
:1021B500B61581158122C2B4C29475820A121A0518
:1021C500D2B4758232021A059000AAE4F09000ABF1
:1021D500F0A3F0A3F0758200021C78E5829000BAA6
:1021E500F0E0FF24F850047582FF229000A7E4F088
:1021F5009000A8EFF0758210121C0AAE82AF83EE34
:102205004F603BC007C006C006C007749CC0E074A1
:1022150052C0E07480C0E0746DC0E07452C0E0123A
:102225003BB6E58124F9F5817438C0E07450C0E00F
:10223500123BB615811581D006D0078E8222758294
:102245000022E5829000BBF0E0FF9000A77401F04A
:102255009000A8EFF0758210121C0AE582FE603B23
:102265008E057F00C006C005C00774AAC0E0745281
:10227500C0E07480C0E0746DC0E07452C0E0123BF1
:10228500B6E58124F9F5817438C0E07450C0E012D8
:102295003BB615811581D0068E822275820022E516
:1022A500829000BCF0E0FF24FE500490FFFF2290D6
:1022B50000A7E4F09000A8EFF0758252121C0AAE58
:1022C50082AF83EE4F603DC007C006C006C00774ED
:1022D500BBC0E07452C0E07480C0E0746DC0E074AF
:1022E50052C0E0123BB6E58124F9F5817438C0E0AF
:1022F5007450C0E0123BB615811581D006D0078E0B
:10230500828F832290000022E5829000BDF0E0FFDD
:1023150024FE50047582FF229000A77403F09000FC
:10232500A8EFF0758244121C0AE582FE603B8E051B
:102335007F00C006C005C00774CAC0E07452C0E083
:102345007480C0E0746DC0E07452C0E0123BB6E525
:102355008124F9F5817438C0E07450C0E0123BB6B1
:1023650015811581D0068E822275820022E5829024
:1023750000BEF0E0FF24FD50047582FF229000A707
:102385007402F09000A8EFF0758252121C0AAE821A
:10239500AF83EE4F603BC007C006C006C00774DAC6
:1023A500C0E07452C0E07480C0E0746DC0E0745247
:1023B500C0E0123BB6E58124F9F5817438C0E074BC
:1023C50050C0E0123BB615811581D006D0078E822C
:1023D5002275820022E5829000BFF07582021221EB
:1023E500E0AF827E00C007C00674EFC0E07452C043
:1023F500E07480C0E0123EBFE58124FBF5817438AE
:10240500C0E07450C0E0123BB6158115817582029B
:102415001221E0AF827E00C007C0067416C0E074CA
:1024250053C0E07480C0E0123EBFE58124FBF58116
:102435007438C0E07450C0E0123BB6158115817543
:102445008201122247AF827E00C007C006743FC0DA
:10245500E07453C0E07480C0E0123EBFE58124FB08
:10246500F5817438C0E07450C0E0123BB615811593
:10247500817582011222A4AE827F00C006C0077456
:1024850069C0E07453C0E07480C0E0123EBFE581CE
:1024950024FBF5817438C0E07450C0E0123BB615DA
:1024A50081158175820112230DAF827E00C007C0A0
:1024B500067491C0E07453C0E07480C0E0123EBF62
:1024C500E58124FBF5817438C0E07450C0E0123B0F
:1024D500B615811581758264121A059000BFE0F565
:1024E50082122372AF827E00C007C00674BAC0E0B4
:1024F5007453C0E07480C0E0123EBFE58124FBF553
:10250500817438C0E07450C0E0123BB61581158166
:10251500758214121A05740FC0E07454C0E07480FB
:10252500C0E074E8C0E07453C0E07480C0E0123EBF
:10253500BFE58124FAF5817438C0E07450C0E0121B
:102545003BB61581158122E5829000C0F0758203A6
:102555001221E0AF827E00C007C00674EFC0E074B0
:1025650052C0E07480C0E0123EBFE58124FBF581D6
:102575007438C0E07450C0E0123BB6158115817502
:1025850082031221E0AF827E00C007C00674EFC04F
:10259500E07452C0E07480C0E0123EBFE58124FBC8
:1025A500F5817438C0E07450C0E0123BB615811552
:1025B50081758201122247AF827E00C007C0067472
:1025C5003FC0E07453C0E07480C0E0123EBFE581B7
:1025D50024FBF5817438C0E07450C0E0123BB61599
:1025E5008115817582011222A4AE82AF83C006C017
:1025F500077469C0E07453C0E07480C0E0123EBF48
:10260500E58124FBF5817438C0E07450C0E0123BCD
:10261500B61581158175820112230DAF827E00C02A
:1026250007C0067491C0E07453C0E07480C0E01226
:102635003EBFE58124FBF5817438C0E07450C0E0ED
:10264500123BB6158115819000C0E0F58212237208
:10265500AF827E00C007C00674BAC0E07453C0E004
:102665007480C0E0123EBFE58124FBF5817438C05B
:10267500E07450C0E0123BB6158115817582D01209
:102685001A057419C0E07454C0E07480C0E074E8A1
:10269500C0E07453C0E07480C0E0123EBFE5812401
:1026A500FAF5817438C0E07450C0E0123BB615816C
:1026B5001581229000AAE4F09000ABF0A3F0A3F0FE
:1026C500758212121C78AE82AF83BEFF25BFFF2232
:1026D5007429C0E07454C0E0123BB61581158174AD
:1026E50038C0E07450C0E0123BB615811581758283
:1026F50000228E8222E5829000C4F01221CDAF82A5
:10270500BF01388F057E00C005C0067483C0E07424
:1027150054C0E07480C0E07459C0E07454C0E01245
:102725003BB6E58124F9F5817438C0E07450C0E00A
:10273500123BB61581158190FFFF227E00C007C0B0
:1027450006748BC0E07454C0E07480C0E0123EBFD4
:10275500E58124FBF5817438C0E07450C0E0123B7C
:10276500B6158115811226B8AF828F057E00C00788
:10277500C005C00674A9C0E07454C0E07480C0E010
:10278500123EBFE58124FBF5817438C0E07450C06A
:10279500E0123BB615811581D007EF70347483C004
:1027A500E07454C0E07480C0E074C6C0E07454C0E6
:1027B500E07480C0E0123EBFE58124FAF5817438EB
:1027C500C0E07450C0E0123BB61581158190FFFF43
:1027D500229000C4E0FFBF01028002807C9000AF20
:1027E5007401F09000B074C7F07400A3F0E4A3F096
:1027F5009000B37406F0758212121E39E582858346
:10280500F09000C5F0E5F0A3F074EAC0E07454C0A0
:10281500E0123BB6158115817D007E00C3ED94065F
:10282500EE648094805061ED24C7F582EE3400F5A6
:1028350083E0FC7B00C006C005C004C00374FCC077
:10284500E07454C0E0123BB6E58124FCF581D00567
:10285500D0060DBD00C60E80C3BF022C9000AF741C
:1028650001F09000B074C7F07400A3F0E4A3F090F9
:1028750000B3740BF0758212121E39E5828583F060
:102885009000C5F0E5F0A3F09000C5E0F5F0A3E0F9
:1028950045F0603A9000C5E0C0E0A3E0C0E0748375
:1028A500C0E07454C0E07480C0E07401C0E07455A9
:1028B500C0E0123BB6E58124F9F5817438C0E074B7
:1028C50050C0E0123BB61581158190FFFF229000A4
:1028D500C7E0FE7F009000C8E07C004207EC42069E
:1028E5009001D5740AF0E4A3F08F828E83123A6EBC
:1028F500AE82AF839000C9E0F5169000CAE0FB7C7C
:10290500009000CBE07A004204EA42039001D574BE
:102915000AF0E4A3F08C828B83C007C006123A6EDE
:10292500AB82AC83D006D0079000CCE0FA9000C112
:10293500E0F513A3E0F514A3E0F51574082513F8E5
:10294500E43514F9AD15888289838DF0EE123B9B31
:10295500A3EF123B9B740A2513FDE43514FEAF1556
:102965008D828E838FF0E516123B9B740B2513FD2C
:10297500E43514FEAF158D828E838FF0EB123B9BF1
:10298500A3EC123B9B740D2513FDE43514FEAF1526
:102995008D828E838FF0EA123B9B9000C4E0FFBFCF
:1029A50002028003022A36C0029000CDE0FE7F00BD
:1029B5009000CEE07C004207EC42068F828E83C0F9
:1029C50002123E65AC82AD83AEF0FFE4C0E0C0E02C
:1029D5007420C0E07441C0E08C828D838EF0EF12CC
:1029E50048EBAC82AD83AEF0FFE58124FCF581D0E8
:1029F500029000CFE0FB740E2513F8E43514F9AA14
:102A050015888289838AF0EC123B9BA3ED123B9BD0
:102A1500A3EE123B9BA3EF123B9B74122513FDE41F
:102A25003514FEAF158D828E838FF0EB123B9BD054
:102A350002EAFF24FC5003022B1CEF2F2F902A469D
:102A450073022A52022A85022AB8022AEA7483C02E
:102A5500E07454C0E07480C0E07427C0E07455C0D1
:102A6500E07480C0E0123EBFE58124FAF581743838
:102A7500C0E07450C0E0123BB615811581022B3AB7
:102A85007483C0E07454C0E07480C0E07453C0E047
:102A95007455C0E07480C0E0123EBFE58124FAF5AC
:102AA500817438C0E07450C0E0123BB615811581C1
:102AB500022B3A7483C0E07454C0E07480C0E074A3
:102AC5007EC0E07455C0E07480C0E0123EBFE58171
:102AD50024FAF5817438C0E07450C0E0123BB61595
:102AE50081158180507483C0E07454C0E07480C047
:102AF500E074AFC0E07455C0E07480C0E0123EBF22
:102B0500E58124FAF5817438C0E07450C0E0123BC9
:102B1500B615811581801E74E0C0E07455C0E012C1
:102B25003BB6158115817438C0E07450C0E0123B86
:102B3500B61581158190000022E5829000D5F0122E
:102B450021CDAF82BF01388F057E00C005C0067458
:102B5500FEC0E07455C0E07480C0E07459C0E074F4
:102B650054C0E0123BB6E58124F9F5817438C0E024
:102B75007450C0E0123BB61581158190FFFF227E8F
:102B850000C007C006740CC0E07456C0E07480C075
:102B9500E0123EBFE58124FBF5817438C0E0745036
:102BA500C0E0123BB6158115811226B8AF82C00769
:102BB5001226B8E582D007703474FEC0E07455C0A3
:102BC500E07480C0E074C6C0E07454C0E07480C096
:102BD500E0123EBFE58124FAF5817438C0E07450F7
:102BE500C0E0123BB61581158190FFFF227E00C023
:102BF50007C0067429C0E07456C0E07480C0E012B6
:102C05003EBFE58124FBF5817438C0E07450C0E017
:102C1500123BB6158115819000D5E0FFBF012E90BE
:102C250000AF7401F09000B074D8F07400A3F0E424
:102C3500A3F09000B37412F0758212121E39E5826A
:102C45008583F09000D6F0E5F0A3F0802FBF022C2D
:102C55009000AF7401F09000B074D8F07400A3F048
:102C6500E4A3F09000B37417F0758212121E39E5D3
:102C7500828583F09000D6F0E5F0A3F09000D6E0D1
:102C8500F5F0A3E045F0603A9000D6E0C0E0A3E09F
:102C9500C0E074FEC0E07455C0E07480C0E074010B
:102CA500C0E07455C0E0123BB6E58124F9F58174A6
:102CB50038C0E07450C0E0123BB61581158190FF15
:102CC500FF229000D8E0FF7E007D008D048E058FE9
:102CD500067F009000D9E0F8E4F9FAFBE84207E93D
:102CE5004206EA4205EB42048D048E058F067F00FD
:102CF5009000DAE0F8E4F9FAFBE84207E94206EA6F
:102D05004205EB42048D1A8E198F18751700900035
:102D1500DDE0F8E4F9FAFBE84217E94218EA42195E
:102D2500EB421A9000E4E0FA7B009000E5E07900C0
:102D35004203E942029001D5740AF0E4A3F08B82C4
:102D45008A83C007C006C005C004123A6EAA82ABCA
:102D5500839000E6E0F51B9000E7E0F87900881D18
:102D6500891C9000E8E0F87900E51C4200E51D4269
:102D7500019001D5740AF0E4A3F088828983C00329
:102D8500C002123A6EA882A983D002D003D004D023
:102D950005D006D0079000E9E0F51C9000D2E0F5DB
:102DA5001EA3E0F51FA3E0F520851E82851F838500
:102DB50020F0EF123B9BA3EE123B9BA3ED123B9B36
:102DC500A3EC123B9B7404251EFDE4351FFEAF20CA
:102DD5008D828E838FF0E517123B9BA3E518123B7E
:102DE5009BA3E519123B9BA3E51A123B9B7408258F
:102DF5001EFDE4351FFEAF208D828E838FF0EA1213
:102E05003B9BA3EB123B9B740A251EFDE4351FFE7D
:102E1500AF208D828E838FF0E51B123B9B740B25B3
:102E25001EFDE4351FFEAF208D828E838FF0E812E4
:102E35003B9BA3E9123B9B740D251EFDE4351FFE4C
:102E4500AF208D828E838FF0E51C123B9B9000D5C1
:102E5500E0FFBF02028003022EE19000EAE0FE7F60
:102E6500009000EBE07C004207EC42068F828E83E7
:102E7500123E65AC82AD83AEF0FFE4C0E0C0E07405
:102E850020C0E07441C0E08C828D838EF0EF124843
:102E9500EBAC82AD83AEF0FFE58124FCF5819000BB
:102EA500ECE0FB740E251EF8E4351FF9AA20888294
:102EB50089838AF0EC123B9BA3ED123B9BA3EE1298
:102EC5003B9BA3EF123B9B7412251EFDE4351FFEB1
:102ED500AF208D828E838FF0EB123B9BE51CFF2488
:102EE500FB5003022FC1EF2F2F902EF273022F01FB
:102EF500022F28022F4F022F75022F9B7447C0E027
:102F05007456C0E07480C0E0123EBF15811581156E
:102F1500817438C0E07450C0E0123BB6158115814C
:102F2500022FE9745FC0E07456C0E07480C0E012FF
:102F35003EBF1581158115817438C0E07450C0E01D
:102F4500123BB615811581022FE97476C0E07456DF
:102F5500C0E07480C0E0123EBF15811581158174F3
:102F650038C0E07450C0E0123BB6158115818074FD
:102F75007493C0E07456C0E07480C0E0123EBF1583
:102F850081158115817438C0E07450C0E0123BB6DC
:102F950015811581804E74B0C0E07456C0E0748010
:102FA500C0E0123EBF1581158115817438C0E074EB
:102FB50050C0E0123BB6158115818028AE1C7F00FC
:102FC500C006C00774CFC0E07456C0E0123BB6E53A
:102FD5008124FCF5817438C0E07450C0E0123BB622
:102FE5001581158190000022AF83E5829000EFF0F6
:102FF500EFA3F09000EFE0FEA3E0FFBE450ABF009F
:10300500079000F1E4F0802EBE760BBF000890001B
:10301500F17401F08020BED70BBF00089000F17459
:1030250002F08012BE9B0BBF01089000F17403F003
:10303500800490FFFF2275820A1220C1E58254FCAC
:10304500FF9000F1E09000B54FF075820A12208FD5
:1030550090000022AF83E5829000F2F0EFA3F0909C
:1030650000F2E0FEA3E0FFBE320ABF00079000F4C5
:10307500E4F08066BE640BBF00089000F47401F0B4
:103085008058BEC80BBF00089000F47402F0804A57
:10309500BE900BBF01089000F47403F0803CBE2085
:1030A5000BBF03089000F47404F0802EBEE80BBF3C
:1030B50003089000F47405F08020BE400BBF06089D
:1030C5009000F47406F08012BE800BBF0C089000CF
:1030D500F47407F0800490FFFF2275820A1220C164
:1030E500E58254E3FF9000F4E025E025E09000B58B
:1030F5004FF075820A12208F900000229000AAE4FA
:10310500F09000ABF0A3F0A3F07582FF121C78AE2F
:1031150082AF83BEFF25BFFF2274F1C0E07456C0A5
:10312500E0123BB6158115817438C0E07450C0E0DB
:10313500123BB61581158190FFFF22BE0105BF0028
:10314500028028C006C007741AC0E07457C0E01298
:103155003BB6E58124FCF5817438C0E07450C0E0CD
:10316500123BB61581158190FFFF227446C0E074AD
:1031750057C0E07480C0E0123EBF158115811581EE
:103185007438C0E07450C0E0123BB61581158190CB
:103195000000229000A7E4F09000A87403F0758267
:1031A50010121C0A9000A77401F09000A8F0758217
:1031B50010121C0A9000A77403F09000A87401F087
:1031C500758244121C0A9000A77402F09000A8149E
:1031D500F0758252121C0A9000AAE4F09000ABF040
:1031E500A3F0A3F0758200121C78AE82AF83C006EF
:1031F500C007746DC0E07457C0E07480C0E0123E33
:10320500BFE58124FBF581758264121A0580C874B7
:103215007FC0E07457C0E07480C0E0123EBF1581E6
:10322500158115817438C0E07450C0E0123BB615A5
:10323500811581122126C294123101758201122550
:103245004C900076122FED9006401230599000D226
:1032550074F5F07400A3F0E4A3F0758201122B3E1F
:10326500E5828583F045F060030233859000FFE039
:10327500FF7E00C007C00674A2C0E07457C0E074AA
:1032850080C0E0123EBFE58124FBF5817438C0E0C3
:103295007450C0E0123BB6158115819000FFE0FF28
:1032A50024CD40030233859000F5E0FCA3E0FDA3A7
:1032B500E0FEA3E0FFC004C005C006C00774BFC0A0
:1032C500E07457C0E07480C0E0123EBFE58124F988
:1032D500F5817438C0E07450C0E0123BB615811515
:1032E500819000F9E0FCA3E0FDA3E0FEA3E0FFC0B0
:1032F50004C005C006C00774D9C0E07457C0E074A7
:1033050080C0E0123EBFE58124F9F5817438C0E044
:103315007450C0E0123BB6158115819000FDE0FEAA
:10332500A3E0FFC006C00774F4C0E07457C0E074A2
:1033350080C0E0123EBFE58124FBF5817438C0E012
:103345007450C0E0123BB615811581900100E0FE76
:10335500A3E0FFC006C0077411C0E07458C0E07454
:1033650080C0E0123EBFE58124FBF5817438C0E0E2
:103375007450C0E0123BB6158115819000FFE4F052
:0933850075820A121A0502325287
:104FF6000A0D1B5B313B33316D4552524F523A20FD
:1050060025733A2564205772697465206164647259
:10501600657373206661696C656421006932634D4E
:1050260061783332363634577269746542797465FD
:1050360073001B5B306D000A0D1B5B313B33316D1A
:105046004552524F523A2025732046616D696C795C
:1050560020427974652057726974652061646472B0
:10506600657373206661696C656421000A0D1B5BBC
:10507600313B33316D4552524F523A202573204908
:105086006E6465782042797465205772697465206C
:1050960061646472657373206661696C656421007E
:1050A6000A0D1B5B313B33316D4552524F523A204C
:1050B60025732044617461204279746520577269B2
:1050C6007465202564206661696C656421000A0D9B
:1050D6001B5B313B33316D4552524F523A2025739B
:1050E60020526561642042797465206661696C6549
:1050F6006421000A0D1B5B33383B353B3231346D7E
:105106007265747279696E67207772697465000AD0
:105116000D1B5B313B33316D4552524F523A2025C0
:1051260073205772697465206164647265737320B5
:105136006661696C656421006932634D617833325A
:105146003636345265616442797465000A0D1B5B1C
:10515600313B33316D4552524F523A202573205719
:105166007269746520427974652057726974652086
:1051760061646472657373206661696C656421009D
:105186006932634D617833323636345365717565ED
:105196006E7469616C5265616442797465000A0DCA
:1051A6001B5B313B33316D4552524F523A202573CA
:1051B600205374617475732042797465203D2025EF
:1051C60064000A0D1B5B313B33316D4552524F5221
:1051D6003A204572726F722072656164696E67204B
:1051E600646576696365206D6F646521000A0D1B31
:1051F6005B33383B353B3231346D53657474696EBD
:105206006720746F204170706C69636174696F6E9A
:10521600204D6F64652E2E2E000A0D1B5B313B332D
:10522600316D4552524F523A204170706C6963613C
:1052360074696F6E204D6F6465206E6F74207365A0
:1052460074212121000A0D1B5B33383B353B32317B
:10525600346D4170706C69636174696F6E204D6F57
:10526600646520536574000A0D1B5B313B33316D59
:105276004552524F523A2025733A2052656369656A
:10528600766564204572726F72205374617475730B
:10529600203D202564007365744F75747075744DD8
:1052A6006F6465007365744669666F5468726573EA
:1052B600686F6C6400616763416C676F436F6E74FF
:1052C600726F6C006D61783330313031436F6E74BC
:1052D600726F6C006D6178696D46617374416C67BD
:1052E6006F436F6E74726F6C000A0D1B5B33383B35
:1052F600353B3231346D7365744F75747075744D0A
:105306006F646520537461747573203D20256400B5
:105316000A0D1B5B33383B353B3231346D73657494
:105326004F75747075744D6F646520537461747530
:10533600732032203D202564000A0D1B5B33383B69
:10534600353B3231346D7365744669666F546872E5
:105356006573686F6C6420537461747573203D20A7
:105366002564000A0D1B5B33383B353B3231346D07
:10537600616763416C676F436F6E74726F6C205325
:105386007461747573203D202564000A0D1B5B3320
:10539600383B353B3231346D6D61783330313031E5
:1053A600436F6E74726F6C20537461747573203D15
:1053B600202564000A0D1B5B33383B353B32313404
:1053C6006D6D6178696D46617374416C676F436F8B
:1053D6006E74726F6C20537461747573203D202552
:1053E60064000A0D1B5B33383B353B3231346D2587
:1053F600733A20636F6E66696775726174696F6E62
:10540600207375636365737300636F6E66696742C5
:10541600706D00636F6E66696753656E736F724277
:10542600706D000A0D1B5B313B33316D4552524F97
:10543600523A204572726F722072656164696E67B6
:10544600206E756D53616D706C65734F757446692A
:10545600666F000A0D1B5B313B33316D4552524F6F
:10546600523A2025733A2048756220537461747548
:1054760073204572726F72203A202564007265614E
:105486006442706D000A0D1B5B33383B353B32318D
:10549600346D5374617475732042797465203D20B0
:1054A6002564000A0D1B5B33383B353B3231346DC6
:1054B6006E756D53616D706C6573203D20256400BB
:1054C6000A0D1B5B33383B353B3231346D25733A5D
:1054D600204E6F2073616D706C657320746F20723F
:1054E600656164000A0D446174612066726F6D2007
:1054F6004875620A0D0025640A0D000A0D1B5B3112
:105506003B33316D4552524F523A2025733A205360
:105516007461747573204572726F72203A20256427
:10552600000A0D1B5B33383B353B3231346D257336
:105536003A2046696E6765722053746174757320EC
:105546003D204E4F5F52454144494E47000A0D1BD0
:105556005B33383B353B3231346D25733A2046692F
:105566006E67657220537461747573203D204E4FCB
:10557600545F5245414459000A0D1B5B33383B3595
:105586003B3231346D25733A2046696E6765722069
:10559600537461747573203D204F424A4543545FEE
:1055A6004445544543544544000A0D1B5B33383B80
:1055B600353B3231346D25733A2046696E67657224
:1055C60020537461747573203D2046494E474552F9
:1055D6005F4445544543544544000A0D1B5B313B2B
:1055E60033316D4552524F523A20556E6B6E6F777E
:1055F6006E206361736521007265616453656E7325
:105606006F7242706D000A0D1B5B33383B353B32BF
:1056160031346D48756220537461747573203D2072
:105626002564000A0D1B5B33383B353B3231346D44
:105636004E756D2053616D706C6573203D20256439
:10564600000A0D1B5B33383B353B3231346D4E4F10
:105656005F52454144494E47000A0D1B5B33383BB8
:10566600353B3231346D4E4F545F524541445900FB
:105676000A0D1B5B33383B353B3231346D4F424AA2
:105686004543545F4445544543544544000A0D1B65
:105696005B33383B353B3231346D46494E474552D4
:1056A6005F4445544543544544000A0D1B5B33385B
:1056B6003B353B3231346D5052455353494E475F6B
:1056C600544F4F5F48415244000A0D1B5B313B3338
:1056D600316D4552524F523A20554E4B4E4F574E12
:1056E600204552524F523A202564000A0D1B5B3169
:1056F6003B33316D4552524F523A205265616564D3
:105706002044657669636520547970652066616911
:105716006C6564000A0D1B5B313B33316D4552529B
:105726004F523A2044657669636520547970652046
:105736002564206E6F7420657870656374656400F7
:105746000A0D1B5B33383B353B3231346D4465768D
:10575600696365205479706520436865636B2053DF
:10576600756363657373006875622073746174751D
:1057760073203D2025780A0D000A0D1B5B33383B4C
:10578600353B3231346D456E746572696E672054EF
:10579600657874204D617820485542000A0D1B5BE0
:1057A60033383B353B3231346D434F4E46494445E1
:1057B6004E4345203D202575000A0D1B5B33383BC3
:1057C600353B3231346D4952204C4544203D20252D
:1057D6006C75000A0D1B5B33383B353B3231346D3B
:1057E600524544204C4544203D20256C75000A0D49
:1057F6001B5B33383B353B3231346D48454152549F
:105806002D52415445203D202575000A0D1B5B3362
:10581600383B353B3231346D4F585947454E203D64
:10582600202575000A0D1B5B33383B353B3231347E
:105836006D7256616C7565203D202566000A0D1B4C
:105846005B33383B353B3231346D457874656E6475
:0F585600656420537461747573203D20257500BF
:10338E00AF83E58290010AF0EFA3F090010AE0FE10
:10339E00A3E0FF7C007D00C3EC9EED9F50070CBCAC
:1033AE0000F50D80F22290003A741CF090003B74F0
:1033BE0040F075822A120968C29590003A7405F0A1
:1033CE0090003B7408F075822A120968D29522E5A6
:1033DE008290010EF0E0FF90010CE0FE90010DE0F6
:1033EE00FD90003AEEF090003BEDF08F82C007C0EA
:1033FE0006C005120968E5828583F0D005D006D097
:10340E000745F0602C8E037C00C003C0047465C0B9
:10341E00E07458C0E0123BB6E58124FCF58174914E
:10342E00C0E07458C0E0123BB61581158190FFFFC5
:10343E00229001F4C007C006C00512338ED005D00D
:10344E0006D00790002EEEF08F82C006C005120542
:10345E00F4AC82AF83D005D006ECB5050280367F82
:10346E00007B007A00C004C007C005C003C006C0C0
:10347E00027496C0E07458C0E0123BB6E58124F8A1
:10348E00F5817491C0E07458C0E0123BB6158115F9
:10349E008190FFFF229000002290003A7409F09074
:1034AE00003B7443F0758275120968E5828583F0DE
:1034BE0045F0601F74E3C0E07458C0E0123BB615CF
:1034CE008115817491C0E07458C0E0123BB615812D
:1034DE001581229001F412338E90010C7402F0903B
:1034EE00010D74C0F07582751233DDE5828583F0AF
:1034FE0045F0601E740EC0E07459C0E0123BB61564
:10350E008115817491C0E07458C0E0123BB61581EC
:10351E00158190010C7408F090010D7402F0758203
:10352E00751233DDE5828583F045F0601E7441C06F
:10353E00E07459C0E0123BB6158115817491C0E05C
:10354E007458C0E0123BB61581158190010C740AB7
:10355E00F090010D7425F07582751233DDE58285CC
:10356E0083F045F0601E7466C0E07459C0E0123BF3
:10357E00B6158115817491C0E07458C0E0123BB647
:10358E001581158190010C740CF090010D74FFF0F3
:10359E007582751233DDE5828583F045F0601E7409
:1035AE008BC0E07459C0E0123BB615811581749141
:1035BE00C0E07458C0E0123BB61581158190010C25
:1035CE00740DF090010D74FFF07582751233DDAE3F
:1035DE0082AF83EE4F6026C007C00674C6C0E0748B
:1035EE0059C0E0123BB6158115817491C0E0745834
:1035FE00C0E0123BB615811581D006D00790003A77
:10360E007411F090003B7421F0758275C007C006EE
:10361E00120968D006D007EE4F601F7400C0E07428
:10362E005AC0E0123BB6158115817491C0E07458F2
:10363E00C0E0123BB6158115812290003A7404F059
:10364E0090003BE4F0758275120968E5828583F07F
:10365E0045F0601F742BC0E0745AC0E0123BB615E3
:10366E008115817491C0E07458C0E0123BB615818B
:10367E0015812290003A7406F090003BE4F07582BA
:10368E0075120968E5828583F045F0601F745CC091
:10369E00E0745AC0E0123BB6158115817491C0E0FA
:1036AE007458C0E0123BB6158115812290010C743E
:1036BE0009F090010D7403F07582751233DDE58209
:1036CE008583F045F0601E7484C0E0745AC0E01229
:1036DE003BB6158115817491C0E07458C0E0123B61
:1036EE00B6158115819001F402338EE5829001109A
:1036FE00F0E0FF90010FE0FEC39F5009900111EF23
:10370E00C39EF08017C3EF9E500D7420C39EFE9093
:10371E000111EF2EF08005900111E4F0900111E0FF
:10372E0075F006A4F0E0F58222AFF0AE83E582904C
:10373E000112F0EEA3F0EFA3F090002E7405F075D9
:10374E0082751205F4AE82AF83BEFF37BFFF34C061
:10375E0007C00674E7C0E0745AC0E07480C0E0741D
:10376E00B5C0E0745AC0E0123BB6E58124FBF5818A
:10377E007491C0E07458C0E0123BB615811581D02B
:10378E0006D007C006C00774F6C0E0745AC0E074D5
:10379E0080C0E0123EBFE58124FBF5817491C0E04C
:1037AE007458C0E0123BB6158115819001F41233A6
:1037BE008E90002E7404F07582751205F4AE82AFF1
:1037CE0083BEFF37BFFF34C007C00674E7C0E07486
:1037DE005AC0E07480C0E07417C0E0745BC0E012A1
:1037EE003BB6E58124FBF5817491C0E07458C0E0CE
:1037FE00123BB615811581D006D007C006C00774DE
:10380E0044C0E0745BC0E07480C0E0123EBFE5814E
:10381E0024FBF5817491C0E07458C0E0123BB615DC
:10382E008115819001F412338E90002E7406F0757E
:10383E0082751205F4AE82AF83BEFF37BFFF34C070
:10384E0007C00674E7C0E0745AC0E07480C0E0742C
:10385E0060C0E0745BC0E0123BB6E58124FBF581ED
:10386E007491C0E07458C0E0123BB615811581D03A
:10387E0006D007C006C007748CC0E0745BC0E0744D
:10388E0080C0E0123EBFE58124FBF5817491C0E05B
:10389E007458C0E0123BB6158115819001F41233B5
:1038AE008E900112E0FDA3E0FEA3E0FF90003274C3
:1038BE0007F0900033EDF0EEA3F0EFA3F09000369A
:1038CE007406F0758275120768AE82AF83BEFF3341
:1038DE00BFFF3074E7C0E0745AC0E07480C0E0747B
:1038EE00A7C0E0745BC0E0123BB6E58124FBF58116
:1038FE007491C0E07458C0E0123BB61581158190EA
:10390E00FFFF229000062290002EE4F075827512C1
:10391E0005F4AE82AF83C006C00774CDC0E0745B01
:10392E00C0E07480C0E0123EBFE58124FBF58174D7
:10393E0091C0E07458C0E0123BB61581158190001D
:10394E002E7401F07582751205F4AE82AF83C00637
:10395E00C00774F1C0E0745BC0E07480C0E0123E3A
:10396E00BFE58124FBF5817491C0E07458C0E0126C
:10397E003BB615811581221233B41234A77E007F17
:10398E0000C007C0067415C0E0745CC0E0123BB600
:10399E001581158190002E74FFF07582751205F455
:1039AE0012391590011575F000123737AC82AD83C0
:1039BE00D006D007BCFF05BDFF028073C3E49C7424
:1039CE00808DF063F08095F05065900117E0FC7DDE
:1039DE0000900116E07A004205EA420490011AE0D6
:1039EE00FA7B00900119E079004203E942028E0051
:1039FE008F010EBE00010FC007C006C003C002C07B
:103A0E0005C004C000C0017462C0E0745CC0E07404
:103A1E0080C0E0123EBFE58124F7F5817491C0E0CD
:103A2E007458C0E0123BB615811581D006D0077CC4
:103A3E00007D008C028D03C3EA9464EB9400400376
:103A4E0002398F9001F4C007C006C005C0041233BE
:103A5E008ED004D005D006D0070CBC00D60D80D376
:105865000A0D1B5B313B33316D4552524F523A2085
:10587500577269746520746F205265676973746522
:1058850072202575204661696C6564001B5B306D6F
:10589500000A0D1B5B313B33316D4552524F523A75
:1058A5002052656769737465722025642045787098
:1058B500656374656420256420616E64206163748A
:1058C50075616C20256420636F6E66696720646F5F
:1058D5006573206E6F74206D6174636821000A0D15
:1058E5001B5B313B33316D4552524F523A203120CB
:1058F500526573657420436F6E6775726174696F65
:105905006E204661696C6564000A0D1B5B313B3393
:10591500316D4552524F523A203220496E746572AC
:105925007275707420456E61626C65205265676999
:1059350073746572204661696C6564000A0D1B5BB2
:10594500313B33316D4552524F523A20332046494F
:10595500464F20436F6E666967204661696C6564D2
:10596500000A0D1B5B313B33316D4552524F523AA4
:1059750020342053704F3220436F6E66696720468E
:1059850061696C6564000A0D1B5B313B33316D4504
:1059950052524F523A203620526564204C454420DD
:1059A50044726976652043757272656E7420436F23
:1059B5006E6775726174696F6E204661696C6564A6
:1059C500000A0D1B5B313B33316D4552524F523A44
:1059D5002037204952204C45442044726976652081
:1059E50043757272656E7420436F6E67757261746C
:1059F500696F6E204661696C6564000A0D1B5B3139
:105A05003B33316D4552524F523A2035204D756C1E
:105A15007469204C454420436F6E74726F6C204648
:105A250061696C6564000A0D1B5B313B33316D4563
:105A350052524F523A203820526573657474696E1C
:105A45006720577269746520506F696E746572209E
:105A55004661696C6564000A0D1B5B313B33316D32
:105A65004552524F523A2039205265736574746914
:105A75006E672052656164204661696C6564000A41
:105A85000D1B5B313B33316D4552524F523A20313C
:105A9500302053657474696E67206F706572617428
:105AA500696E67206D6F6465204661696C65640089
:105AB5000A0D1B5B313B33316D4552524F523A2033
:105AC50025733A2052656164696E67206F76657249
:105AD500666C6F7720636F756E7465722066616999
:105AE5006C007265616453656E736F724669666FAB
:105AF500000A0D1B5B33383B353B3231346D4F7635
:105B05006572666C6F7720436F756E74203D202536
:105B150064000A0D1B5B313B33316D4552524F52C8
:105B25003A2025733A2052656164696E6720577281
:105B350069746520496E646578206661696C000A40
:105B45000D1B5B33383B353B3231346D577269740D
:105B55006520707472203D202564000A0D1B5B31A1
:105B65003B33316D4552524F523A2025733A2052FC
:105B7500656164696E67205265616420496E64657C
:105B850078206661696C000A0D1B5B33383B353B39
:105B95003231346D5265616420707472203D202568
:105BA50064000A0D1B5B313B33316D4552524F5238
:105BB5003A2025733A2052656164696E672046492B
:105BC500464F206661696C000A0D1B5B33383B3517
:105BD5003B3231346D496E74657272757074207321
:105BE500746174757331203D202564000A0D1B5BBB
:105BF50033383B353B3231346D496E74657272759D
:105C050070742073746174757332203D20256400AF
:105C15000A0D2A2A2A2A2A2A2A2A2A2A2A2A2A2A1C
:105C25002A2A2A2A2A2A2A2A2A2A2A2A2A2A2A2ACF
:105C35002A2A2A2A2A2A2A2A2A2A2A2A2A2A2A2ABF
:105C45002A2A2A2A2A2A2A2A2A2A2A2A2A2A2A2AAF
:105C55002A2A2A2A2A2A2A2A2A2A2A2A000A0D1B15
:105C65005B33383B353B3231346D25752C726564B9
:0E5C7500203D202575206972203D20257500F8
:103A6E00AF83E5829001D7F0EFA3F09001D9E4F097
:103A7E00A3F09001D5E0FEA3E0FF7D109001D7E00A
:103A8E00FBA3E0FC9001DB235401F0EB2BFBEC33AA
:103A9E00FC9001D7EBF0ECA3F09001D9E0FBA3E092
:103AAE00FCEB2BFBEC33FC9001D9EBF0ECA3F0908C
:103ABE0001DBE060089001D9E043E001F09001D90C
:103ACE00E0FBA3E0FCC3EB9EEC9F40139001D9EB0F
:103ADE00C39EF0EC9FA3F09001D7E043E001F0DD30
:103AEE009B9001D7E0FEA3E08E82F5832290022503
:103AFE00E0FCA3E0FDA3E0FEA3E0FF8D00EEC31308
:103B0E00C813C8C313C813C8F9EF030354C049F947
:103B1E00EF0303543FFA7B00EC6200ED6201EE62AC
:103B2E0002EF6203E828FDE933FEEA33FF7C00E88A
:103B3E006204E96205EA6206EB6207EFC313F8E47A
:103B4E00F9FAFBE86204E96205EA6206EB620790A5
:103B5E000225ECF0EDA3F0EEA3F0EFA3F053057FFA
:103B6E008C828D8322AF83E5829001DCF0EFA3F08F
:103B7E009001DCE0FEA3E0FF7D007C00900225EECC
:0D3B8E00F0EFA3F0EDA3F074804CA3F02243
:045C8E000100008091
:06003500E478FFF6D8FD9F
:100013007904E94400601B7A01905C8E782575A011
:1000230002E493F2A308B8000205A0D9F4DAF2754A
:02003300A0FF2C
:103B9B0020F71130F6138883A88220F509F6A88345
:103BAB007583002280FEF280F5F022C021858121F1
:103BBB00E52124FDF8868318868218E493A324DB81
:103BCB00600C24256005123CA480F0023CBCD2D5CD
:103BDB00E493A3C083C082B4731486F01886831851
:103BEB008682181249AE6054A3123CA480F5B463CC
:103BFB000818E618123CA48043B46417E630E74675
:103C0B0018E6F42401F608E6F43400F6742D123CA1
:103C1B00A48033B4782D868318868218E4123C95E1
:103C2B00E583123C94E583123C95E582123C94E5C6
:103C3B0082123C9530D5057430123CA4D082D083CF
:103C4B00023BC6B475F6E6FA18E6F9187C107D2728
:103C5B00123C7FFF7CE87D03123C7FC4F5837C64C0
:103C6B007D00123C7F4283E975F00A84C445F0F570
:103C7B0082EF80A97B000BC3E99CF9EA9DFA50F611
:103C8B001BE92CF9EA3DFAEB22C4540F700320D543
:103C9B001FC2D52490D43440D4C083C082C0F0F569
:103CAB0082E8C0E0120B4BD0E0F8D0F0D082D0838A
:103CBB0022D02122AA83AB828BF09001DFE0A4F803
:103CCB00A9F08AF0E0A429F98BF0A3E0A429F583ED
:103CDB0088822222AF83E5829001E3F0EFA3F0907C
:103CEB0001E3E0FEA3E0FF30E709C3E49EFCE49FA1
:103CFB00FD80048E048F059001E1E0FEA3E0FF3010
:103D0B00E709C3E49EFAE49FFB80048E028F0390C5
:103D1B0001E5EAF0EBA3F08C828D83123D47AE8276
:103D2B00AF839001E3E0A3E030E70CC3E49EFCE437
:103D3B009FFD8C828D83228E828F8322AF83E582BF
:103D4B009001E7F0EFA3F09001E9E4F09001E7E0D8
:103D5B00FEA3E0FF7D009001E5E0FBA3E0FC235414
:103D6B0001FA7036EB2BFBEC33FC9001E5EBF0EC3E
:103D7B00A3F09001E5E0FBA3E0FCC3EE9BEF9C50AE
:103D8B0011ECC313CB13CBFC9001E5EBF0ECA3F0E0
:103D9B0080080D9001E9EDF080BC9001E9E0FF9007
:103DAB0001E7E0FDA3E0FE9001E5E0FBA3E0FCC32F
:103DBB00ED9BEE9C400B9001E7EDC39BF0EE9CA3BB
:103DCB00F09001E5E0FDA3E0C313CD13CDFE900110
:103DDB00E5EDF0EEA3F08F061FEE70C39001E7E068
:103DEB00FEA3E08E82F58322AF83E5829001ECF097
:103DFB00EFA3F09001ECE0FEA3E0FF30E709C3E492
:103E0B009EFCE49FFD80048E048F059001EAE0FE8A
:103E1B00A3E0FF33E433FB6009C3E49EF9E49FFAAC
:103E2B0080048E018F029001D5E9F0EAA3F08C8219
:103E3B008D83C003123A6EAE82AF83D0039001EC38
:103E4B00E0A3E033E4336B600CC3E49EFCE49FFD22
:0A3E5B008C828D83228E828F8322D9
:10003B007800E84400600A790075A000E4F309D861
:10004B00FC7825E84402600C7903900000E4F0A3EF
:04005B00D8FCD9FAFA
:103E6500E4AC83AB82FAF9748E0249D3C021858113
:103E7500217E008E83120B4BD02122AFF0AE83E55D
:103E8500829001EFF0EEA3F0EFA3F09001EFE0FDDB
:103E9500A3E0FEA3E0FF9001EEE0FC900203E4F056
:103EA500A3F0A3F0900206EDF0EEA3F0EFA3F090DF
:103EB5000209ECF0903E71023FC5C021E581F52174
:103EC50024FBFF900203E4F0A3F0A3F0E52124FB1B
:103ED500F8900206E6F008E6A3F008E6A3F09002E3
:103EE50009EFF0903E71123FC5D02122E582900185
:103EF500FFF0E0FF9001F5E0C0E0A3E0C0E0A3E043
:103F0500C0E0123F0C800D9001F3E0C0E0A3E0C0DB
:103F1500E08F82221581158115819001FDE0240134
:103F2500F0A3E03400F022E582900200F0E02430B6
:103F3500FF24C6500D74072FFF9001F2E060034384
:103F450007208F82023EF1E582900201F0E0FFC476
:103F5500540FF582C007123F2CD00753070F8F82ED
:103F6500023F2CE582900202F09001F8E0FCA3E00C
:103F7500FDA3E0FEA3E0FF9001FCE0FB900202E060
:103F8500FA79208B00E828F52CEF235401452CFB0A
:103F9500EC2CFCED33FDEE33FEEF33FFC3EB9A4023
:103FA50007EBC39AFB43040119E970D79001F8ECBC
:103FB500F0EDA3F0EEA3F0EFA3F09001FCEBF022FF
:103FC500AF83E58290020AF0EFA3F090020AE0FECB
:103FD500A3E0FF9001F3EEF0EFA3F0900203E0FD04
:103FE500A3E0FEA3E0FF9001F5EDF0EEA3F0EFA353
:103FF500F09001FDE4F0A3F0900206E0FDA3E0FEE1
:10400500A3E0FF8D828E838FF01249AEFC900206ED
:1040150074012DF0E43EA3F0EFA3F0EC7003024829
:10402500C7BC250280030248BF90020CE4F0900251
:104035000DF090020EF090020FF0900210F0900239
:1040450011F0900212F0900213F0900215F0900218
:1040550016F0A3F090021814F0A3F0900206E0FD0C
:10406500A3E0FEA3E0FF8D828E838FF01249AEFBA5
:10407500A3AD82AE83900206EDF0EEA3F0EFA3F0C0
:1040850090021CEBF0BB25088B82123EF1023FFD2E
:10409500BB3000500302415EEB24C6500302415E73
:1040A500900218E0F522A3E0F52374FFB52263B56D
:1040B5002360C005C006C007900216E0FAA3E0FF22
:1040C5009001DFEAF0EFA3F090000AC005C00312EB
:1040D5003CBFAE82AF83D003D0058B027D00EA2EB4
:1040E500FEED3FFFEE24D0FEEF34FFFF900216EE0B
:1040F500F0EFA3F0D007D006D005900216E0F5F05A
:10410500A3E045F0600302406B90020D7401F002DC
:10411500406BC005C006C0079001DFE522F0E5232E
:10412500A3F090000AC006C005C003123CBFAA82D6
:10413500AF83D003D005D0067E00EB2AFAEE3FFF11
:10414500EA24D0FAEF34FFFF900218EAF0EFA3F06B
:10415500D007D006D00502406B90021CE0FBBB2EB9
:104165002FC005C006C007900218E0FAA3E0FFBA09
:10417500FF05BFFF028009D007D006D00502406BBE
:10418500D007D006D005900218E4F0A3F002406BEA
:10419500BB61004014EB2485400F90021C74DF5B6B
:1041A500F09001F27401F080059001F2E4F09002C4
:1041B5001CE0FBBB20028075BB2B028067BB2D0278
:1041C5008059BB4202806FBB4302807CBB44030223
:1041D5004455BB460302447BBB480302406BBB49C5
:1041E50003024455BB4A0302406BBB4C028050BBE3
:1041F5004F03024463BB50030243C3BB53028077A2
:10420500BB540302406BBB550302446BBB5803020E
:104215004473BB5A0302406B02448390020C740141
:10422500F002406B90020E7401F002406B90020F99
:104235007401F002406B9002117401F002406B9022
:1042450002127401F002406B900211E0600E9002C0
:1042550009E014F9F090021CE7F0800F900209E0E4
:1042650024FEFFF08F0190021CE7F090021CE0F5A0
:1042750082123EF1024492900209E024FDFFF08F84
:1042850001870509870609870719199001F8EDF0D7
:10429500EEA3F0EFA3F08D828E838FF01248D385C5
:1042A5008222858323900218E0FAA3E0FDBAFF0D70
:1042B500BDFF0A900218E522F0E523A3F090020C59
:1042C500E0704B900216E0FAA3E0FDC3E5229AE503
:1042D500239D503A900216EAC39522F0ED9523A34B
:1042E500F0900216E0FAA3E0FD8A068D071ABAFFE0
:1042F500011DEE4F6010758220C005C002123EF10F
:10430500D002D00580E3900216EAF0EDA3F090020A
:1043150018E0F525A3E0F5269001F8E0FAA3E0FD05
:10432500A3E0FF8A828D838FF01249AEF524603CAD
:10433500C3E4952574808526F063F08095F0502CB4
:10434500152574FFB525021526852482123EF190A8
:1043550001F8E0FAA3E0FDA3E0FF0ABA00010D9021
:1043650001F8EAF0EDA3F0EFA3F080AC90020CE0C9
:104375007003024492900216E0FEA3E0FFC3E5221B
:104385009EE5239F4003024492900216EEC39522B8
:10439500F0EF9523A3F0900216E0FEA3E0FF8E0256
:1043A5008F051EBEFF011FEA4D700302448A758208
:1043B50020C007C006123EF1D006D00780E090026B
:1043C50009E024FDFDF08D01872709872809872944
:1043D50019199001F8E527F0E528A3F0E529A3F0E0
:1043E5009001FAE0FDBD8000400890021C7443F086
:1043F5008020BD6000400890021C7450F08013BD01
:104405004000400890021C7449F0800690021C741C
:1044150058F090021CE0FDF582C005123EF1758250
:104425003A123EF1758230123EF1758278123EF1F4
:10443500D005BD4902800EBD500280099001F9E00A
:10444500F582123F4C9001F8E0F582123F4C803D19
:104455009002107401F0900215740AF0802F9002FA
:10446500157408F08027900215740AF0801F9002D9
:10447500157410F080179002137401F0800F8B8271
:10448500123EF18008900216EEF0EFA3F0900213B1
:10449500E06071900209E024FCFFF08F01870309B9
:1044A50087050987060987071919199001F8EBF09F
:1044B500EDA3F0EEA3F0EFA3F09001F87483F07490
:1044C5005CA3F07480A3F09001F8E0F527A3E0F574
:1044D50028A3E0F52974012527FAE43528FBAF293F
:1044E5009001F8EAF0EBA3F0EFA3F0852782852889
:1044F500838529F01249AEFF7003023FFD8F8212BA
:104505003EF180C3900215E07003023FFD90021159
:10451500E06047900209E014F9F087077E007D000E
:104525007B009001F8EFF0EEA3F0EDA3F0EBA3F024
:10453500900210E060030245D59001F8E0FBA3E08E
:10454500A3E0A3E07D007E007F009001F8EBF0ED95
:10455500A3F0EEA3F0EFA3F08076900212E06028BE
:10456500900209E024FCFFF08F0187030987050904
:1045750087060987071919199001F8EBF0EDA3F0E3
:10458500EEA3F0EFA3F08048900209E024FEFFF0CF
:104595008F01870609870719EF3395E0FDFB900129
:1045A500F8EEF0EFA3F0EDA3F0EBA3F0900210E02E
:1045B500701E9001F8E0FBA3E0FDA3E0A3E07E0000
:1045C5007F009001F8EBF0EDA3F0EEA3F0EFA3F080
:1045D500900210E060419001F8E0FBA3E0FDA3E04C
:1045E500FEA3E0FF30E72B9001F8E0FBA3E0FDA37D
:1045F500E0FEA3E0FFC3E49BFBE49DFDE49EFEE437
:104605009FFF9001F8EBF0EDA3F0EEA3F0EFA3F020
:104615008005900210E4F09002147401F0900215E8
:10462500E0F525752A22752B02E4F522F523900184
:10463500FCE4F0852582123F68900214E070339007
:1046450001FCE0C454F0F5279001FCE0C4540F458B
:1046550027F527852A82852B83E0FFE527420785F5
:104665002A82852B83EFF0152A74FFB52A02152BB4
:10467500800C9001FCE0FF852A82852B83F00522C2
:10468500E4B522020523900214E0B40100E433F0FE
:104695009001F8E0FAA3E0FBA3E0FEA3E0FFEA4BFC
:1046A5004E4F708A900223E52AF0E52BA3F0900285
:1046B5001AE522F0E523A3F0900216E0F5F0A3E059
:1046C50045F070099002167401F0E4A3F090020D14
:1046D500E0FFE0704790020CE0704185222A8523B7
:1046E5002B900216E0FAA3E0FBC007AF2A0F8F0656
:1046F5007F00C3EE9AEF9BD0075019758220C00743
:10470500C003C002123EF1D002D003D0071ABAFF8F
:10471500011B80D5900216EAF0EBA3F0900210E0A1
:10472500602075822DC007123EF1D007900216E079
:1047350024FFFDA3E034FFFE900216EDF0EEA3F09A
:10474500805690021AE0F5F0A3E045F0604A900229
:104755000EE0602075822BC007123EF1D007900253
:1047650016E024FFFDA3E034FFFE900216EDF0EE07
:10477500A3F0802490020FE0601E758220C007120E
:104785003EF1D007900216E024FFFDA3E034FFFEC2
:10479500900216EDF0EEA3F090020CE07048900246
:1047A5001AE0F52AA3E0F52B900216E0FAA3E0FB48
:1047B500C0078A068B071ABAFF011BC3E52A9EE5C7
:1047C5002B9FD0075053EF60067D307E0080047D1F
:1047D500207E008D82C007C003C002123EF1D002C8
:1047E500D003D00780CA900216E0FEA3E0FF900236
:1047F5001AE0F52AA3E0F52BC3E52A9EE52B9F5089
:104805000F900216EEC3952AF0EF952BA3F08011B9
:10481500900216E4F0A3F08008900216EAF0EBA3EC
:10482500F0900223E0FEA3E0FF90021AE0F52AA330
:10483500E0F52BAA2AAD2B152A74FFB52A02152BF4
:10484500EA4D6045900214E0B40100E433F09002B3
:1048550014E070140EBE00010F8E828F83E0C454E5
:104865000FFD9001FCF0800E8E828F83E0FD5305D5
:104875000F9001FCEDF09001FCE0F582C007C00649
:10488500123F2CD006D00780AA90020CE0700302DC
:104895003FFD900216E0FEA3E0FF8E038F051EBECE
:1048A500FF011FEB4D7003023FFD758220C007C05D
:1048B50006123EF1D006D00780E08C82123EF1024E
